{
  "contractName": "Storage",
  "abi": [
    {
      "constant": false,
      "inputs": [
        {
          "internalType": "bytes4",
          "name": "symbol",
          "type": "bytes4"
        },
        {
          "internalType": "uint256",
          "name": "_price",
          "type": "uint256"
        },
        {
          "internalType": "uint256",
          "name": "_volume",
          "type": "uint256"
        }
      ],
      "name": "setStock",
      "outputs": [],
      "payable": false,
      "stateMutability": "nonpayable",
      "type": "function"
    },
    {
      "constant": true,
      "inputs": [
        {
          "internalType": "bytes4",
          "name": "symbol",
          "type": "bytes4"
        }
      ],
      "name": "getStockPrice",
      "outputs": [
        {
          "internalType": "uint256",
          "name": "",
          "type": "uint256"
        }
      ],
      "payable": false,
      "stateMutability": "view",
      "type": "function"
    },
    {
      "constant": true,
      "inputs": [
        {
          "internalType": "bytes4",
          "name": "symbol",
          "type": "bytes4"
        }
      ],
      "name": "getStockVolume",
      "outputs": [
        {
          "internalType": "uint256",
          "name": "",
          "type": "uint256"
        }
      ],
      "payable": false,
      "stateMutability": "view",
      "type": "function"
    }
  ],
  "bytecode": "0x608060405234801561001057600080fd5b506102fc806100206000396000f3fe608060405234801561001057600080fd5b50600436106100415760003560e01c80630b1dc17c146100465780638604e3db146100a7578063945aaa4414610108575b600080fd5b6100916004803603602081101561005c57600080fd5b8101908080357bffffffffffffffffffffffffffffffffffffffffffffffffffffffff19169060200190929190505050610169565b6040518082815260200191505060405180910390f35b6100f2600480360360208110156100bd57600080fd5b8101908080357bffffffffffffffffffffffffffffffffffffffffffffffffffffffff191690602001909291905050506101c6565b6040518082815260200191505060405180910390f35b6101676004803603606081101561011e57600080fd5b8101908080357bffffffffffffffffffffffffffffffffffffffffffffffffffffffff191690602001909291908035906020019092919080359060200190929190505050610223565b005b6000806000837bffffffffffffffffffffffffffffffffffffffffffffffffffffffff19167bffffffffffffffffffffffffffffffffffffffffffffffffffffffff19168152602001908152602001600020600101549050919050565b6000806000837bffffffffffffffffffffffffffffffffffffffffffffffffffffffff19167bffffffffffffffffffffffffffffffffffffffffffffffffffffffff19168152602001908152602001600020600001549050919050565b61022b6102ad565b828160000181815250508181602001818152505080600080867bffffffffffffffffffffffffffffffffffffffffffffffffffffffff19167bffffffffffffffffffffffffffffffffffffffffffffffffffffffff19168152602001908152602001600020600082015181600001556020820151816001015590505050505050565b60405180604001604052806000815260200160008152509056fea265627a7a7231582017f4f93d024fc5dc77671280d2ba3dead28d279b21f722b94da7b2e97c921b4864736f6c63430005100032",
  "source": "// SPDX-License-Identifier: MIT\npragma solidity >=0.4.21 <0.7.0;\n\n\ncontract Storage {\n\n    //quote structure\n\nstruct stock {\n    uint price;\n    uint volume;\n}\n\n//quotes by symbol\n\nmapping ( bytes4 => stock) stockQuote;\n\n//contract owner\naddress oracleOwner;\n\n//set teh value of a stock.\n\nfunction setStock(bytes4 symbol, uint _price, uint _volume) public {\n    stock memory newStock;\n    newStock.price = _price;\n    newStock.volume = _volume;\n    stockQuote[symbol] = newStock;\n}\n\n// Get the value of a stock\nfunction getStockPrice (bytes4 symbol) public view returns (uint) {\n    return stockQuote[symbol].price;\n}\n\n//Get the value of volume traded for a stock\n\nfunction getStockVolume (bytes4 symbol) public view returns (uint){\n    return stockQuote[symbol].volume;\n}\n\n}\n    // uint price;\n    // uint volume;\n    // string symbol;\n    // // string public symbol;\n    // // uint public price;\n\n    // function getData(string calldata symbol) view external returns( uint ) {\n    //     return (price);\n    // }\n\n    // function setData(string calldata _symbol, uint _price, uint _volume) external {\n    //     symbol = _symbol;\n    //     price =  _price;\n    //     volume = _volume;\n\n    // }",
  "sourcePath": "/Users/nas20/Documents/GBC/sem two/BCDV1011 Design Pattern for Blockchain/practice_drizzle/drizzle/contracts/Storage.sol",
  "compiler": {
    "name": "solc",
    "version": "0.5.16+commit.9c3226ce.Emscripten.clang"
  },
  "schemaVersion": "3.0.23",
  "updatedAt": "2020-06-12T03:21:04.357Z",
  "networkType": "ethereum",
  "devdoc": {
    "methods": {}
  },
  "userdoc": {
    "methods": {}
  }
}